:020000040800F2
:10000000A86A0120C1010008FD5A0008B75B00087A
:10001000C15B0008C55B0008C95B00080000000068
:10002000000000000000000000000000CD5B0008A0
:10003000CF5B000800000000B96A02082D04010827
:10004000FB010008FB010008FB010008FB010008A0
:10005000FB010008FB010008FB0100084B5C0008E5
:10006000FB010008FB010008FB010008FB01000880
:10007000FB010008FB010008FB010008FB01000870
:10008000FB010008FB010008FB010008FB01000860
:10009000FB010008FB010008FB010008FB01000850
:1000A000FB010008FB010008FB010008FB01000840
:1000B000FB010008FB010008A3140208FB01000873
:1000C000FB010008FB010008FB010008FB01000820
:1000D000FB010008FB0100081D130208FF5A00087D
:1000E000FB010008FB010008FB010008FB01000800
:1000F000FB010008FB010008FB010008FB010008F0
:10010000FB010008AD6F0108FB010008FB010008BE
:10011000FB010008FB010008FB010008FB010008CF
:10012000FB010008FB010008FB010008B56F010896
:10013000FB010008FB010008FB010008FB010008AF
:10014000FB010008FB010008FB010008FB0100089F
:10015000FB010008FB010008FB010008FB0100088F
:10016000FB010008FB010008FB010008FB0100087F
:10017000FB010008FB010008FB010008FB0100086F
:10018000FB010008FB010008FB010008FB0100085F
:10019000FB010008FB010008FB010008FB0100084F
:1001A000D35B0008FB0100080F5C0008DFF80CD0EF
:1001B00026F0E2FB0048004741590008A86A0120E8
:1001C000DFF83800016841F470010160BFF34F8F20
:1001D000DFF82C00016821F040410160BFF36F8F10
:1001E0000848804708480047FEE7FEE7FEE7FEE7CD
:1001F000FEE7FEE7FEE7FEE7FEE7FEE788ED00E04C
:1002000034EF00E01D030008AD0100080CB500202C
:10021000019000908348006840F480308149086074
:1002200000BF8048006800F4003000900198401C36
:100230000190009818B90198B0F5A04FF1D1794814
:10024000006800F4003010B10120009001E00020AF
:1002500000900098012860D172484030006840F05A
:1002600080507049403108606F48006840F4404059
:100270006D4908606B48083000686A4908310860B9
:100280000846006840F4004008600846006840F4F2
:10029000A05008606548091F0860081F006840F00A
:1002A0008070091F086000BF5E48006800F00070A1
:1002B0000028F9D05C48006840F480305A49086052
:1002C00000BF5948406800F480300028F9D05648F3
:1002D000006840F400305449086000BF524840684C
:1002E00000F400300028F9D040F205705049086051
:1002F0004C480830006820F003004A490831086083
:100300000846006840F00200086000BF4548083019
:10031000006800F00C000828F8D10CBD10B5454865
:10032000006840F47000434908603E48006840F0AF
:1003300001003C49086000203A490831086039480A
:1003400000683D490840374908603C48091D08607D
:10035000081F006820F48020091F08600020314930
:100360000C310860FFF752FF4FF0006031498039CF
:10037000086010BD70B50020002202230024022175
:10038000284D08352D6805F00C0020B1042806D052
:10039000082834D107E02A4D2A4E356033E02A4D33
:1003A000284E35602FE01F4D2D1D2D68C5F380545C
:1003B0001C4D2D1D2D6805F03F0154B1224DB5FB9C
:1003C000F1F5184E361D3668C6F3881605FB06F2A1
:1003D00009E01B4DB5FBF1F5124E361D3668C6F32C
:1003E000881605FB06F20F4D2D1D2D68C5F301453E
:1003F0006D1C6B00B2FBF3F5124E356003E0104D3F
:10040000104E356000BF00BF064D08352D68C5F39E
:1004100003150E4E705D0B4D2D68C540094E3560BD
:1004200070BD0000003802400070004019544007C1
:10043000003C024088ED00E0FFFFF6FE1030002493
:100440000024F4000000002040787D01040000201A
:1004500032490143324A1160704770B500210023D0
:100460000F22C4781CB32E4C246804F4E064C4F555
:10047000E064C4F30721C1F10404E3B20A41447803
:100480009C40E1B28478144021430C07210E254C96
:1004900005786155047804F01F050124AC40057807
:1004A0006D11AD0005F1E025C5F8004109E00478C3
:1004B00004F01F050124AC401B4D0678761145F869
:1004C000264070BD194A0A400243154B1B1F1A6093
:1004D000704739B1124A121D12680243104B1B1D9E
:1004E0001A6006E00E4A121D126882430C4B1B1D57
:1004F0001A607047042808D14FF0E021096941F0E3
:1005000004014FF0E022116107E04FF0E02109699A
:1005100021F004014FF0E022116170470000FA055C
:100520000CED00E000E400E080E100E080FFFF1F50
:1005300010B50121080202F037FD00214FF4807050
:1005400002F032FD10BD30B5024600200023506895
:10055000F84C20400D790C6844EA05242043506093
:100560009068F54C2040D1E903542C438D682C430E
:100570004D7944EA450420439060D06A20F470002D
:100580000C7D641EE4B2234340EA0350D06230BDC8
:1005900000210160017141718160C160016101212F
:1005A000017570470021E54A1168E54A1140D0E91C
:1005B00000231A4383681A43C3681A431143E14A6C
:1005C000C2F8041370470021016041608160C1607E
:1005D000704721B1826842F00102826003E08268C4
:1005E00022F00102826070470A4600214168D64B22
:1005F00019401143416070474162826270470A4668
:100600000021416821F01F0111434160704738B15A
:10061000CA49096841F40001CA4AC2F8041306E055
:10062000C649096821F40001C64AC2F8041370479C
:1006300038B1C249096841F48001C24AC2F80413C2
:1006400006E0BE49096821F48001BE4AC2F80413DD
:100650007047F0B504460D4600200021092D11DD3C
:10066000E068A5F10A0606EB4607072606FA07F139
:100670008843A5F10A0606EB460603FA06F108438D
:10068000E0600CE0206905EB4507072606FA07F154
:10069000884305EB450603FA06F108432061072A63
:1006A0000FDA606B561E06EB86071F2606FA07F167
:1006B0008843561E06EB860605FA06F1084360637A
:1006C00022E00D2A0FDA206BD61F06EB86071F26C5
:1006D00006FA07F18843D61F06EB860605FA06F1EF
:1006E0000843206310E0E06AA2F10D0606EB8607DE
:1006F0001F2606FA07F18843A2F10D0606EB8606CF
:1007000005FA06F10843E062F0BD816841F08041DE
:1007100081607047014600208A6802F080420AB179
:10072000012000E00020704721B1826842F480621D
:10073000826003E0826822F480628260704721B1A7
:10074000826842F00202826003E0826822F00202C4
:100750008260704710B50A4600210023416821F4E9
:100760006041531E41EA4331416010BD21B14268EE
:1007700042F40062426003E0426822F40062426098
:1007800070470146C86C80B270476C48001D006815
:10079000704721B1826842F48072826003E082680F
:1007A00022F480728260704721B1826842F4007244
:1007B000826003E0826822F400728260704738B180
:1007C0005E49096841F400515E4AC2F8041306E02C
:1007D0005A49096821F400515A4AC2F80413704773
:1007E000F0B504461546002000220026092911DD37
:1007F000E068A1F10A0707EB470C072707FA0CF29C
:100800009043A1F10A0707EB470703FA07F21043E9
:10081000E0600CE0206901EB410C072707FA0CF2BD
:10082000904301EB410703FA07F210432061A06BEC
:10083000C0F30156EF1C06F1010CA7EB0C0707EB08
:10084000870C1F2707FA0CF29043EF1C06F1010CEE
:10085000A7EB0C0707EB870701FA07F21043A06329
:10086000F0BD10B50A4600210023816B21F4401130
:10087000531E41EA0351816310BD08B50023009364
:100880000090009B0B440093009B1A6008BD0A4631
:100890000021816821F470211143816070470A466C
:1008A0000021816821F44011114381607047816803
:1008B00041F4800181607047014600208A6802F49B
:1008C00080020AB1012000E00020704721B1426897
:1008D00042F48062426003E0426822F48062426037
:1008E000704721B1426842F48052426003E042689E
:1008F00022F480524260704708B502460020009002
:10090000009201F12800009B1844009000980068B4
:1009100080B208BD10B50B460021D9B2012404FAFB
:1009200001F11AB144680C43446002E044688C430E
:10093000446010BDFFFEFFFCFDF7FFC00423014033
:10094000E030FCFF00200140FFFD3FFF0246002099
:1009500013680B400BB1012000E000207047CA4330
:100960000260704770B502460020002300240B127D
:10097000556801268E4005EA060415681D4015B12C
:100980000CB1012000E0002070BD00220A12D34308
:1009900003607047016821F00101016000210160DE
:1009A00041608160C160016121214161DB49884270
:1009B00004D13D21D94A103A91608CE0D7491831D1
:1009C000884205D14FF47461D44A103A916082E0B4
:1009D000D2493031884205D14FF47411CF4A103AD0
:1009E000916078E0CD494831884205D14FF074617B
:1009F000CA4A103A91606EE0C8496031884204D119
:100A0000C749C64A103AD16065E0C4497831884286
:100A100004D1C449C14A103AD1605CE0BF49903169
:100A2000884204D1C049BD4A103AD16053E0BB4965
:100A3000A831884205D14FF03D51B84A103AD160F3
:100A400049E0BA49884204D13D21B84A083A1160C8
:100A500041E0B6491831884205D14FF47461B34A78
:100A6000083A116037E0B1493031884205D14FF47E
:100A70007411AE4A083A11602DE0AC494831884201
:100A800005D14FF07461A94A083A116023E0A749E3
:100A90006031884204D1A249A44A121F11601AE0B1
:100AA000A2497831884204D19E49A04A121F1160A0
:100AB00011E09E499031884204D19B499B4A121F04
:100AC000116008E09949A831884204D14FF03D51A6
:100AD000964A121F1160704710B500220268944BAD
:100AE0001A40CC680B6823434C6923438C69234329
:100AF000CC6923430C6A23434C6A23438C6A234307
:100B00004C6B23438C6B23431A430260426922F0EF
:100B10000702D1E90B3423431A4342610B69436056
:100B20004B6883608B68C36010BD00210160416029
:100B30008160C160016141618161C16101624162A5
:100B40008162C162016341638163704721B10268C0
:100B500042F00102026003E0026822F0010202603A
:100B6000704721B1026842F40042026003E002686B
:100B700022F400420260704721B1026842F0200274
:100B8000026003E0026822F02002026070474160C8
:100B900070470146486880B2704722B1036843F449
:100BA0000023036003E0036823F400230360016172
:100BB000704721B1026842F48022026003E00268BB
:100BC00022F48022026070470AB1016100E0C16036
:100BD0007047014600200A6802F400220AB1012091
:100BE00000E000207047014600200A6802F0010280
:100BF0000AB1012000E000207047014600204A6948
:100C000002F03800704730B503460A460020002441
:100C1000464DAB4202D24149103901E043491039F7
:100C200002F000550DB14C6800E00C68414D2C40BD
:100C300004EA02050DB1012000E0002030BD0246AB
:100C40003A4B9A4202D23548103801E03748103802
:100C500001F000531BB1374B0B40C36002E0354B32
:100C60000B408360704710B501F080034BB122B197
:100C7000436943F08003436103E0436923F0800349
:100C8000436180290BD02AB1036801F01E0423437D
:100C9000036004E0036801F01E04A343036010BD79
:100CA00070B50246002000240025204EB24202D238
:100CB0001A4B103B01E01D4B103B1F4E0E4036B14E
:100CC0001E2606EAD124166806EA040502E05669E3
:100CD00006F0800501F000560EB15C6800E01C686B
:100CE000144E344004EA010616B10DB1012000E0B3
:100CF000002070BD02460D4B9A4202D207481038C0
:100D000001E00A48103801F000531BB1094B0B40B9
:100D1000C36002E0074B0B408360704710600240E5
:100D20003D000020400F002000003D2010640240E4
:100D30003F801CF07D0F7D0F3C0F3C0F10B5012153
:100D4000C80502F0EDF800214FF4000002F0E8F8C9
:100D500010BD70B50021002200230024E14D2D6854
:100D6000E14E3540DF4E356035462D680668354327
:100D7000DC4E356035466D6B25F0070575633546ED
:100D80006D6B46683543D74E7563456835B9C568A0
:100D90002902058A2A04057D2B0621E04568012DDC
:100DA00005D1C5682902058A2A04002318E0456890
:100DB000022D05D1C56869010569EA0200230FE02B
:100DC0004568032D06D1C56869010569AA02456910
:100DD000EB0305E0C568290105692A0245692B0373
:100DE00041EA0205866835431D43BE4EB66B354366
:100DF000BC4EB5638569F56335462D6C6FF30D0503
:100E0000356435462D6CC6693543B64E3564858CE0
:100E10002C0435466D6C05F04045756435466D6CA7
:100E2000066A26433543AF4E756470BD00210160EC
:100E30004160C1608160016141618161C1610162A4
:100E400041627047A748006840F00100A54908606A
:100E50007047A448006840F00400A2490860704749
:100E600030B1A049096841F002019E4A116005E0D5
:100E70009C49096821F002019A4A11607047F0B557
:100E8000002100220023002400250026DFF854C2A0
:100E90000768CCF80C7067463F696FF30D07CCF814
:100EA000107067463F69D0F804C047EA0C07DFF8C6
:100EB00034C2CCF810706746FF69DFF830C207EA29
:100EC0000C07DFF820C2CCF81C70C768390107692D
:100ED0003A02878A3B04077E3C066746D7F81CC067
:100EE00087680F4317431F4327434CEA070C7D4F86
:100EF000C7F81CC03F6A07F07F47DFF8E8C1CCF8AD
:100F00002070076A3D02878C3E046746D7F820C0F0
:100F1000C7692F4337434CEA070C724FC7F820C00C
:100F2000DFF8C0C1876ACCF82C70F0BD00210160E9
:100F300041608160C160016141618161C1610162A3
:100F4000416281627047F0B5002100220023002435
:100F500000250026DFF88CC10768CCF814706746BE
:100F6000BF696FF30D07CCF818706746BF69D0F8FA
:100F700004C047EA0C07DFF86CC1CCF8187067466C
:100F80007F6ADFF868C107EA0C07DFF858C1CCF8C0
:100F90002470C768390107693A02878A3B04077ED3
:100FA0003C066746D7F824C087680F4317431F43A2
:100FB00027434CEA070C4B4FC7F824C0BF6A07F021
:100FC0007F47DFF820C1CCF82870076A3D02878C84
:100FD0003E046746D7F828C0C7692F4337434CEA19
:100FE000070C404FC7F828C0DFF8F8C0876ACCF874
:100FF0003070F0BD0021016041608160C16001611D
:1010000041618161C161016241628162704730B1B9
:101010003449C96941F02001324AD16105E03149C2
:10102000C96921F020012F4AD161704730B12D49A3
:10103000496A41F020012B4A516205E02949496A79
:1010400021F02001274A5162704710B579B1254B34
:10105000DB6C4FF60174A343224CE3640202234687
:10106000DB6C42F0010423431E4CE36405E01D4B9E
:10107000DB6C23F001031B4CE36410BD1949886449
:10108000704729B1174A12680243164B1A6004E0F0
:10109000144A12688243134B1A60704701460020BD
:1010A000104A52680A400AB1012000E0002070474F
:1010B0000C4988607047014600200A0A094B5B68AA
:1010C00013400BB1012000E00020064B1B680B40D1
:1010D00013B108B1012000E000207047000A014967
:1010E0008860704700B00240FCE0FCFFC000FC00DC
:1010F000002041490860091D0860091D0860091D9C
:1011000008603E483C4914310860704700213A4964
:101110008279002A3AD00A46126803689A430B463D
:101120001A600A1D126803689A430B1D1A6002793F
:1011300011440A6803681A430A602F4A0832126889
:1011400003689A432C4B08331A601A1D126803680F
:101150009A43294B0C331A604279102A0ED11A1F78
:10116000126803681A43244B08331A601A1D126868
:1011700003681A43204B0C331A600DE01E49427974
:1011800011440A6803681A430A6005E002791144B1
:101190000A6803689A430A60704700210160017180
:1011A0000C21417100218171704713491031096888
:1011B0000143114A103211607047014600200E4A67
:1011C000143212680A400AB1012000E00020704782
:1011D000094914310860704701460020064A14325C
:1011E00012680A400AB1012000E00020704702495D
:1011F0001431086070470000003C0140FFFF7F0091
:1012000030B943F2DB028100A1F1C0410A6005E080
:1012100043F2D2028100A1F1C0410A606FF0704236
:10122000411C8900A1F1C0410A608100A1F1C041C7
:10123000C1F80421704710B50022002103689B000B
:10124000A3F1C0431968FE4B1940D0E90134234390
:10125000C4682343046923434469234384692343C3
:10126000C4692343046A2343446A2343846A2343AF
:10127000C46A2343046B2343446B23431943036829
:101280009B00A3F1C04319608368082B0BD103684E
:101290009B00A3F1C0431B6843F0400403689B001C
:1012A000A3F1C0431C60436BB3F5801F19D10368E1
:1012B000BBB14FF020435B6823F470024FF0204332
:1012C0001B68446B23434FF02044236023461B6874
:1012D00043F480732360836B1B8A5B1E42EA0353D3
:1012E0006360836B1B68846B646843EA0413846BDC
:1012F000A46843EA0423846BA48943EA0443846B0F
:10130000248A43EA0453846B247D43EA0463846B98
:10131000A46923430468641CA400A4F1C0442360AE
:10132000836AB3F5804F1BD1C36B1B68C46B6468C1
:1013300043EA0413C46BA46843EA0423C46B248AFD
:1013400043EA0453C46B247D43EA0463C46BA46979
:1013500023430468A400A4F1C044C4F8043107E0A6
:101360006FF0704403689B00A3F1C043C3F80441CD
:1013700010BD002101600221416000218160102127
:10138000C16000210161C16241618161C1614FF4AD
:101390008051016249004162002181620163416321
:1013A000A8498163C163704751B18200A2F1C04274
:1013B000126842F001038200A2F1C042136009E00A
:1013C0008200A2F1C04212689F4B1A408300A3F131
:1013D000C0431A60704710280AD118214FF02042EC
:1013E0001166402151664FF0FC319166D16610E0E4
:1013F0001821964A116040214FF02042C2F8841013
:101400004FF0FC31914A083211604FF02042C2F88F
:101410008C10704730B50021002200230468102C86
:1014200003D14FF02044216E01E0884C2168884CA4
:101430002140446844F0080485682C43C5682C4367
:1014400005692C43456944EA4524856944EA4534E5
:1014500021430468102C03D14FF02044A26E02E017
:101460007A4C083422680022C4692468C5696D6812
:1014700044EA0524C5692D8944EA0544C5692D7BE4
:1014800044EA056422430468102C03D14FF0204441
:10149000E36E02E06D4C0C3423680023046A246878
:1014A000056A6D6844EA0524056A2D8944EA054405
:1014B000056A2D7B44EA056423430468102C05D19A
:1014C0004FF020442166A266E36608E05F4C21608D
:1014D0004FF02044C4F888205C4C0C34236030BDAD
:1014E0001021016000214160102181600021C16054
:1014F000016141618161FC21C2691160C269516071
:10150000C2699160C269D160026A1160026A516069
:10151000026A9160026AD160704799B1102808D1BF
:101520004FF02042126E42F004024FF020431A6640
:101530001DE0464A126842F004024FF02043C3F80F
:10154000802014E0102809D14FF02042126E3E4B4B
:10155000DB1E1A404FF020431A6608E03B4A12682F
:10156000394BDB1E1A404FF02043C3F880207047F0
:1015700099B1102808D14FF02042126E42F040027B
:101580004FF020431A661DE0304A126842F04002D4
:101590004FF02043C3F8802014E0102809D14FF009
:1015A0002042126E284B3F3B1A404FF020431A66F0
:1015B00008E0264A1268244B3F3B1A404FF0204374
:1015C000C3F88020704701460020102903D14FF056
:1015D0002042506F02E01D4A1432106870471820F4
:1015E0001A492031086000200906C1F8A4004FF014
:1015F000FC30164928310860091D0860091D086083
:10160000704770B500210022002300240F4D2035C3
:101610002968104D2940056845F01005466845EADF
:101620004625866845EA463529434FF02045C5F8EA
:10163000A010064D28352A680022C5682D680BE0E9
:101640008000E7FFDC6E0408FEFF0F00800000A0B2
:101650008101F0FFCD01FEFFC668766845EA0625E8
:10166000C668368945EA0645C668367B45EA06659A
:101670002A434FF02045C5F8A820F94D2B680023D8
:1016800005692D680669766845EA06250669368982
:1016900045EA06450669367B45EA06652B434FF069
:1016A0002045C5F8AC30EE4D2D1D2C680024456951
:1016B0002D684669766845EA06254669368945EA11
:1016C00006454669367B45EA06652C434FF02045C2
:1016D000C5F8B04070BD0021016041608160FC210F
:1016E000C2681160C2685160C2689160C268D1600E
:1016F0000269116002695160026991600269D160FA
:101700004269116042695160426991604269D160E9
:10171000704748B1D2490C39096841F004014FF0D3
:101720002042C2F8A01008E0CD490C390968CD4A22
:1017300011404FF02042C2F8A01070474FF43472AD
:101740008100A1F1C041C1F840216FF07042C4494D
:101750009C3141F820200021C14AA4321160520678
:10176000C2F85411BE4AAC321160704770B5002205
:101770000021002300240568AD00A5F1C045D5F87F
:1017800040216FF30E02D0E901563543C668354358
:10179000066935434669354386693543C66935432D
:1017A000066A3543466A35432A43056835B90568F4
:1017B000AD00A5F1C045C5F8402113E0A84D943512
:1017C0002B686FF30E03D0E907563543466A35435D
:1017D0002B43A34D94352B600568AD00A5F1C045A2
:1017E000C5F84021056875BB9D4D9C35066855F8C8
:1017F000261001F07041856A2D686D1E866A766834
:10180000761E45EA0616856AAD686D1E46EA05260F
:10181000856AED686D1E46EA0536856A2D8A6D1E5D
:1018200046EA0546856AAD8A6D1E46EA0556856A12
:101830002D7E6D1E46EA05652943894D9C35066857
:1018400045F8261032E0FFE7854D9C35066855F8CF
:10185000261001F07041856A2D686D1E866A7668D3
:10186000761E45EA0616856AAD686D1E46EA0526AF
:10187000856A2D8A6D1E46EA05452943784D9C35BB
:101880002C6804F07044856AED686D1E2E03856A2D
:10189000AD8A6D1E46EA05552C434FF02045C5F82C
:1018A00048416F4D9C35066845F8261070BD0021F3
:1018B0000160416081601021C1604021016180218F
:1018C0004161890081610021C16101624162102191
:1018D000826A1160826A5160826A9160826AD16014
:1018E000826A1161826A5161826A91617047002146
:1018F000D0E900231A4383685B1E42EA4312C3689F
:1019000042EA4321564AA432116070470146002042
:1019100029B9534AAC32126802F0060005E0504A79
:10192000AC32126802F01802900870474C49A83196
:10193000096841EA40014FF02042C2F85411704753
:101940004749A431096841EA40114FF02042C2F8EA
:101950005011704761B18200A2F1C042D2F840211B
:1019600042F400738200A2F1C042C2F840310CE0A0
:101970008200A2F1C042D2F8402147F6FF531A403C
:101980008300A3F1C043C3F84021704710B552B3A0
:10199000102807D14FF020435B6E0B434FF02044DB
:1019A00063664AE0B0F5807F08D12D4B283B1B6869
:1019B0000B434FF02044C4F884303EE0B0F5805F24
:1019C00008D1274B083B1B680B434FF02044C4F859
:1019D000A43032E0224BA8331B680B434FF0204465
:1019E000C4F8543129E0102807D14FF020435B6E32
:1019F0008B434FF0204463661FE0B0F5807F08D131
:101A0000174B283B1B688B434FF02044C4F88430AD
:101A100013E0B0F5805F08D1114B083B1B688B4386
:101A20004FF02044C4F8A43007E00D4BA8331B68E6
:101A30008B434FF02044C4F8543110BD10B502461A
:101A400000200023102A03D14FF02044636E14E0DD
:101A5000B2F5807F08D1024C283C23680DE00000DD
:101A6000AC0000A0FBFF0F00B2F5805F02D14B4C31
:101A7000236802E0494CB434236803EA01048C4231
:101A800001D0002000E0012010BD102807D14FF048
:101A90002042526E8A434FF020435A661EE0B0F552
:101AA000807F08D13D4A203A12688A434FF0204394
:101AB000C3F8842012E0B0F5805F07D1374A12687E
:101AC0008A434FF02043C3F8A42007E0334AB032E2
:101AD00012688A434FF02043C3F854217047F0B591
:101AE000024600200023002400250026102A03D1EE
:101AF0004FF020477B6E12E0B2F5807F03D1274F75
:101B0000203F3B680BE0B2F5805F02D1234F3B687A
:101B100005E0224FB0373B68FF06D7F8584103EA8B
:101B200001060AB1012A02D104F0010501E003EA2D
:101B3000D10515B10EB1012000E00020F0BD102844
:101B400008D14FF02042526E22EAD1024FF02043DA
:101B50005A6621E0B0F5807F09D1104A203A126818
:101B600022EAD1024FF02043C3F8842014E0B0F5FC
:101B7000805F08D1094A126822EAD1024FF020435F
:101B8000C3F8A42008E0054AB032126842F001020E
:101B90004FF02043C3F8542170470000A40000A078
:101BA00010B504469848844208D10121084601F046
:101BB000B7F90021012001F0B3F976E0934884429F
:101BC00008D10121022001F0ABF90021022001F02F
:101BD000A7F96AE08E48844208D10121042001F06F
:101BE0009FF90021042001F09BF95EE089488442BE
:101BF00008D10121082001F093F90021082001F00B
:101C00008FF952E08448844208D10121102001F06C
:101C100087F90021102001F083F946E07F488442D3
:101C200008D10121202001F07BF90021202001F0C2
:101C300077F93AE07A48844208D10121402001F046
:101C40006FF90021402001F06BF92EE075488442C5
:101C500008D10121802001F063F90021802001F0EA
:101C60005FF922E07048844208D10121801501F01B
:101C700057F90021A01501F053F916E06B48844292
:101C800008D10121401501F04BF90021601501F048
:101C900047F90AE06648844207D10121001501F0A6
:101CA0003FF90021201501F03BF910BDF0B50A46BF
:101CB00000210023002400BF3DE0012505FA01F3C7
:101CC000156805EA03049C4234D105684F000326D9
:101CD000BE40B543056015794E00B54006683543F2
:101CE00005601579012D02D01579022D16D1856870
:101CF0004F000326BE40B543856055794E00B54080
:101D0000866835438560456801268E40B543456049
:101D1000456896798E40B6B235434560C5684F0038
:101D20000326BE40B543C560D5794E00B540C668B0
:101D30003543C560491C1029BFD3F0BD4FF6FF7174
:101D400001600021017141718171C171704708B555
:101D50004FF480320092009A0A430092009AC261C6
:101D6000C161009AC261C2690092C269009208BD55
:101D70000246002013690B400BB1012000E0002057
:101D800070470146086980B27047024600205369D7
:101D90000B400BB1012000E000207047014648696C
:101DA00080B2704701837047418370470AB1018355
:101DB00000E0418370474161704742694A40426197
:101DC0007047F0B5002300244D07ED0E02FA05F32D
:101DD000CE1000F1200555F826504E07F70E0F26BD
:101DE000BE40B543CF1000F1200646F82750CE1074
:101DF00000F1200555F8265045EA0304CE1000F105
:101E0000200545F82640F0BD0000024000040240D5
:101E100000080240000C0240001002400014024082
:101E200000180240001C0240002002400024024032
:101E30000028024010B50446F848844209D1012127
:101E4000480501F0A0F800214FF4001001F09BF8C4
:101E500018E0F348844209D10121880501F093F884
:101E600000214FF4800001F08EF80BE0ED48844231
:101E700008D10121C80501F086F800214FF40000C7
:101E800001F081F810BD2DE9FF4704460D460026FC
:101E9000B1460427DFF89083A6884FF6C07006404D
:101EA000684600F003FFDDF80880E048B8FBF0F07A
:101EB0001FFA80F946EA0906A68020884FF6FE71CF
:101EC000084020800026DA49286888420CD8286813
:101ED0004000B8FBF0F087B2042F00DA04273E433D
:101EE00009F10100208427E0E8884BF6FF71884261
:101EF00006D1286800EB4000B8FBF0F087B209E09B
:101F0000286800EBC00101EB0010B8FBF0F087B2CD
:101F100047F48047C7F30B0008B947F0010747F4BF
:101F2000004006434FF4967009FB00F04FF47A71BD
:101F300090FBF1F0401C2084A683208840F0010033
:101F4000208026884FF6F5300640A8886989084326
:101F500006432680A889298908432081BDE8FF8798
:101F600041F288310160002181804BF6FF71C18010
:101F70000021018141814FF480418181704721B16D
:101F8000028842F00102028004E002884FF6FE73EC
:101F90001A400280704729B1828C4FF6EF731A40C5
:101FA000828403E0828C42F01002828470470A46E9
:101FB0000021818C4FF6F073194002F00F03194392
:101FC0008184704721B1028842F48072028004E06B
:101FD00002884FF6FF631A400280704721B10288E1
:101FE00042F40072028004E002884FF6FF531A4068
:101FF0000280704712B141F0010101E001F0FE01E1
:102000000182704721B1028842F48062028004E0BC
:1020100002884FF6FF331A40028070470A460021BB
:1020200081894FF60173194002F0FE031943818143
:10203000704721B1828942F00102828104E08289E5
:102040004FF6FE731A408281704721B1028842F038
:102050004002028004E002884FF6BF731A400280FB
:10206000704721B1028842F40042028003E00288F6
:10207000C2F30E020280704721B9028842F080024A
:10208000028004E002884FF67F731A400280704796
:10209000B1F5804F05D0828B4BF6FF731A408283D7
:1020A00003E0828B42F4804282837047B1F5006F77
:1020B00004D1028842F40062028004E002884FF2F8
:1020C000FF731A4002807047B1F5005F04D10288A7
:1020D00042F40052028004E002884DF6FF731A4079
:1020E0000280704721B1028842F01002028004E0B1
:1020F00002884FF6EF731A400280704701827047E2
:102100000146088AC0B2704721B1028842F4805269
:10211000028004E002884EF6FF731A400280704786
:10212000B1F5006F04D1028842F40062028004E03D
:1021300002884FF2FF731A400280704721B1028873
:1021400042F02002028004E002884FF6DF731A405A
:10215000028070470146088B0012704721B18288C7
:1021600042F40062828004E082884FF2FF731A40DA
:102170008280704721B1828842F48052828004E0DC
:1021800082884EF6FF731A408280704708B5024677
:102190000020009000920098084400900098008869
:1021A00008BD1AB183880B43838002E083888B4388
:1021B0008380704770B5024600240025002300206C
:1021C000958A138B1B0445EA030626F07F4404EA34
:1021D00001068E4201D1012000E0002070BD10B543
:1021E00001460020002300228B8A0A8B120443EA56
:1021F000020424F07F4010BD0CB5024600200023ED
:102200000193009300920B0F019321F07F41019BFA
:1022100083B1009B1433009310E000000054004091
:1022200000580040005C004000127A0040420F005D
:10223000A0860100090C009B18330093009B1B68CB
:102240000B400BB1012000E000200CBD002221F06A
:102250007F42D3438382704730B50246002000237B
:10226000948801F0E06504EA154321F07F41948AE7
:102270000C4014B10BB1012000E0002030BD002261
:1022800021F07F42D34383827047000010B50121C3
:10229000880600F089FE00214FF0806000F084FE87
:1022A00010BDF0B5002100220023002400250026E7
:1022B000FE4F3F68DFF8F8C307EA0C07DFF8ECC30E
:1022C000CCF80070078A390467463F68D0F814C01C
:1022D0004CEA010C47EA0C07DFF8D0C3CCF80070D9
:1022E0000CF104073F68DFF8C8C307EA0C07DFF802
:1022F000BCC30CF1040CCCF80070078B3A046746A1
:102300003F68D0F81CC04CEA020C47EA0C07DFF823
:102310009CC30CF1040CCCF800700CF104073F686E
:10232000DFF88CC307EA0C07DFF880C30CF1080C58
:10233000CCF80070078C3B0467463F68D0F824C097
:102340004CEA030C47EA0C07DFF860C30CF1080CF9
:10235000CCF800700CF104073F68DFF854C307EABB
:102360000C07DFF848C30CF10C0CCCF80070078D9B
:102370003C046746D7F800C0C76A27434CEA070CFD
:10238000CA4F0C37C7F800C03F1D3F68DFF824C3B1
:1023900007EA0C07DFF814C30CF1100CCCF800703E
:1023A000D0E9007C47EA0C07D0F808C047EA0C07E0
:1023B000D0F80CC047EA0C07DFF8F0C20CF1100CA3
:1023C000DCF800C047EA0C07DFF8E0C20CF1100CA3
:1023D000CCF80070476B3D02078E3E04B34F2437A4
:1023E0003F6807F07F47DFF8C4C20CF1240CCCF83B
:1023F000007046EA0507D0F838C047EA0C07DFF856
:10240000ACC20CF1240CDCF800C047EA0C07DFF882
:102410009CC20CF1240CCCF80070F0BD00210160CE
:1024200041608160C160016141618161C16101629E
:1024300041628162C162016341638163704740B15F
:102440009A491031096841F00101984A103211602F
:1024500007E096491031096821F00101934A1032D2
:102460001160704740B191491031096841F48031E1
:102470008E4A1032116007E08C491031096821F44E
:1024800080318A4A1032116070470EB58749103189
:102490000968884A1140854A10321160114609685E
:1024A000C1F30211009111460968C1F302210191A3
:1024B00011460968C1F3023102919DE80E0080E8DF
:1024C0000E000EBD022101604160816070477749B6
:1024D00038310860704775491C31086070472DE934
:1024E000F041002400250026002200270023B1F837
:1024F00004C04FEA0C44D0F804C00CF4704CC0F88F
:1025000004C0D1F800C04CEA040CC0F804C0B1F813
:102510000CC04FEA0C45D0F808C00CF4704CC0F861
:1025200008C0D1F808C04CEA050CC0F808C0D0F8C3
:1025300010C02CF0070CC0F810C0D1F810C0C0F8C3
:1025400010C0D1F81CC04FEA0C26B1F820C04FEAE9
:102550000C4291F824C04FEA0C67D0F818C09C4692
:10256000C0F818C0D1F818C04CEA060C4CEA020CAE
:102570004CEA070CC0F818C0D0F814C02CF0FF0CBF
:10258000C0F814C0D1F814C0C0F814C0D0F81CC0F2
:1025900040F207782CEA080CC0F81CC0D1E90AC840
:1025A0004CEA080CC0F81CC0D0F828C09C46C0F803
:1025B00028C0D1F830C0C0F828C0B1F838C04FEA00
:1025C0000C43D0F82CC00CF0E02CC0F82CC0D1F893
:1025D00034C04CEA030CC0F82CC0D0F830C06FF304
:1025E0000A0CC0F830C0D1F83CC0C0F830C0BDE81B
:1025F000F0810021016041608160C1600161FF21C3
:10260000416100218161C161016241624FF4C06199
:1026100081620721C1620021016341638163C1635B
:10262000704721B1026842F00102026003E00268D3
:1026300022F00102026070470CB51C493C31096868
:1026400000211A4A3C32116011460968090C0091B8
:102650001146096889B20191DDE90012C0E9001252
:102660000CBD002101604160704701460F4A4032B5
:1026700012680A400AB1012000E00020704770B5DE
:1026800000230024C2B1056845F0020505604D68CD
:102690002B020D892C04C56805F07F45C560C6680E
:1026A0000D681D4325432E43C66009E008680140BC
:1026B00000F800F08F88FE0F056825F00205056020
:1026C0000125934E356070BD00210160416081603D
:1026D000704721B1026842F01002026003E0026814
:1026E00022F0100202600122894B1A60704730B557
:1026F0000022002300248D682A028D892B040D7886
:102700002C064D68254315431D43056430BD00214B
:10271000016041608160C16070472DE9F0410B4666
:102720001446D0F8048008F47048C0F80480D0F84B
:10273000088008F47048C0F80880DFF8D481A8F158
:102740001808D8F800104FF0010808EB114808EB02
:1027500003051FFA81F808F1010808EB0406016976
:1027600009B904220EE0012901D103220AE004295B
:1027700005D0022903D0032901D0072901D1022263
:1027800000E00122C16AC1F30C08A8F10308B8FBFC
:10279000F2F8A844A8F1010C016BC1F30A08B04497
:1027A000A8F1010745EA0C48C0F8048046EA07484A
:1027B000C0F80880BDE8F0814161704781627047D0
:1027C0002DE9F0430B461446016909B904220EE0D5
:1027D000012901D103220AE0042905D0022903D0EE
:1027E000032901D0072901D1022200E0012241681A
:1027F000C1F30C0503EB0508A8F101078168C1F3DB
:102800000C0604EB0608A8F1010C45EA0748C0F8DD
:10281000048046EA0C48C0F8088003FB02F808F17F
:10282000030803FB02F948EA0948C0F82C80046356
:10283000BDE8F08330B50346186908B904220EE0FC
:10284000012801D103220AE0042805D0022803D080
:10285000032801D0072801D1022200E00122DC6A0E
:10286000200CB0FBF2F009B904220EE0012901D1DD
:1028700003220AE0042905D0022903D0032901D04C
:10288000072901D1022200E0012200FB02F4E41C2E
:1028900000FB02F544EA0544DC62196130BD39B140
:1028A0001B4A103212680243194B10331A6006E0BB
:1028B000174A103212688243154B10331A60704762
:1028C00001460020124A143212680A400AB101205F
:1028D00000E0002070470E4918310860704701463B
:1028E00000200B4A143212680A400AB1012000E0AD
:1028F0000020074A103212680A4012B108B10120C4
:1029000000E000207047024918310860704700005D
:102910002468014010B50121080700F034FB0021B4
:102920004FF0805000F02FFB10BD574908627047F0
:1029300001460020554A106820F0E000084310606E
:1029400070475149086170474F49A031086070478E
:102950004D49A43108607047014600204B4A106879
:1029600020F44040084310607047474908647047AE
:1029700045494864704730B14449096841F44021F1
:10298000424A116005E04149096821F440213F4A6B
:102990001160704718B101213B4AD16202E0002169
:1029A000394AD162704718B10121374A916202E079
:1029B0000021354A9162704733494862704710B52B
:1029C00002460020314B186840F6034398431043F9
:1029D0002E4B18602E4B1B6843F004032C4C2360D5
:1029E000012901D130BF00E020BF294B1B6823F033
:1029F0000403274C236010BD10B502460020234B72
:102A0000186840F6034398431043204B1860204B4E
:102A10001B6843F004031E4C2360012901D130BF21
:102A200000E020BF1A4B1B6823F00403184C2360FE
:102A300010BD1648006840F00200144908601448B0
:102A4000006840F004001249086000BF00BF30BFBA
:102A50007047014600200D4A52680A400AB1012021
:102A600000E000207047B0F5402F06D00749096804
:102A700041EA8001054A116005E00449496841F4D2
:102A80004021024A5160704700000E420070004031
:102A900010ED00E0F648006840F00100F4490860DD
:102AA0000020F34908310860F1480068F149084006
:102AB000EF490860F048091D0860F048EC4984318E
:102AC0000860ED481038091D0860E948006820F4E6
:102AD0008020E74908600020E5490C310860E4499E
:102AE0008C31086070470021E14A921C1170114638
:102AF0000870704710B501460022002300204A11DB
:102B0000012A02D1DA4C236808E0022A03D1D84C0A
:102B10007034236802E0D64C7434236801F01F023D
:102B2000012494401C400CB1012000E0002010BDA5
:102B300038B5002000900024002500BF3120FFF7A9
:102B4000D9FF05460098401C00900098B0F5A04FB2
:102B500001D0002DF2D03120FFF7CCFF08B10124C5
:102B600000E00024204638BD01460020C04A10681D
:102B700020F0F80040EAC10010607047C0490860CA
:102B800070470021BA4A703211701170012802D0CA
:102B900004280AD104E00121B54A7032117005E021
:102BA0000521B34A7032117000E000BF00BF7047CA
:102BB000B4490860704770B5049C41EA821501264B
:102BC000C6EB530645EA0645054345EA0465A84EAB
:102BD000361D356070BDAA490866704710B583017F
:102BE00043EA016343EA0273A14C8434236010BDBD
:102BF000A3498866704710B5830143EA016343EA3D
:102C000002739B4C8834236010BD9D490867704750
:102C10009B49C864704702460020954B08331868EA
:102C200020F0EC6042EA01031843914B083318602E
:102C30007047024600208E4B0833186820F0784019
:102C400042EA010318438A4B083318607047014673
:102C50000020874A0832106820F003000843106003
:102C6000704783480830006800F00C007047014648
:102C700000207F4A0832106820F0F00008431060FE
:102C80007047014600207A4A0832106820F4E0506C
:102C900008431060704701460020754A08321068EA
:102CA00020F4604040EAC10010607047F0B5002198
:102CB000002200240225002602236D4F08373F68BA
:102CC00007F00C0121B1042905D0082937D105E00E
:102CD0006D4F076036E06D4F076033E0644F3F1D76
:102CE0003F68C7F38056624F3F1D3F6807F03F03C0
:102CF0006EB1664FB7FBF3F7DFF874C10CF1040C4B
:102D0000DCF800C0CCF3881C07FB0CF40CE05E4F31
:102D1000B7FBF3F7DFF858C10CF1040CDCF800C086
:102D2000CCF3881C07FB0CF4514F3F1D3F68C7F3E1
:102D300001477F1C7D00B4FBF5F7076002E0524FAE
:102D4000076000BF00BF4A4F08373F6807F0F00137
:102D500009094F4F7A5C0768D7404760444F0837EE
:102D60003F6807F4E051890A494F7A5C4768D740C9
:102D700087603F4F08373F6807F46041490B444F75
:102D80007A5C4768D740C760F0BD002100F440720C
:102D9000B2F5407F0AD1364A0832116821F4F811A1
:102DA0003C4A02401143324A08321160304A7032C4
:102DB0001268C0F30B031A432D4B70331A6070472F
:102DC00030494439086070472E49403908607047DF
:102DD00031490860704701460020254A8C3210684E
:102DE00020F4401008431060704701460020204A3C
:102DF0008C32106820F44000084310607047014690
:102E000000201B4A8C32106820F01F004A1E10431D
:102E1000174A8C321060704701460020144A8C32E9
:102E2000106820F4F8504A1E40EA0220104A8C3202
:102E300010607047014600200D4A8C32106820F463
:102E4000403008431060704714490860704739B13A
:102E5000074A303212680243054B30331A6006E0ED
:102E6000034A303212688243014B30331A60704794
:102E700000380240FFFFF6EA103000240030002046
:102E800000004742800E47420024F40040787D0154
:102E900014000020FFFCFF0F5C014742E011474295
:102EA00029B1934A12680243914B1A6004E0904A98
:102EB000126882438E4B1A60704739B18C4A121DDA
:102EC000126802438A4B1B1D1A6006E0884A121DD5
:102ED00012688243864B1B1D1A60704739B1844AC1
:102EE0000C3212680243824B0C331A6006E0804AAF
:102EF0000C32126882437E4B0C331A60704739B132
:102F00007B4A103212680243794B10331A6006E094
:102F1000774A103212688243754B10331A6070473B
:102F200039B1734A243A12680243714B243B1A6048
:102F300006E06F4A243A126882436D4B243B1A60C4
:102F4000704739B16A4A203A12680243684B203B05
:102F50001A6006E0664A203A12688243644B203BBE
:102F60001A60704739B1624A1C3A12680243604BDA
:102F70001C3B1A6006E05E4A1C3A126882435C4BB6
:102F80001C3B1A60704739B1594A143A126802431F
:102F9000574B143B1A6006E0554A143A12688243B4
:102FA000534B143B1A60704739B1514A103A1268BA
:102FB00002434F4B103B1A6006E04D4A103A12682C
:102FC00082434B4B103B1A60704739B1484A1C3260
:102FD00012680243464B1C331A6006E0444A1C3216
:102FE00012688243424B1C331A60704739B1404A21
:102FF0002032126802433E4B20331A6006E03C4AFE
:103000002032126882433A4B20331A60704739B13C
:10301000374A243212680243354B24331A6006E0E3
:10302000334A243212688243314B24331A6070478A
:1030300039B12F4A2C32126802432D4B2C331A60BF
:1030400006E02B4A2C3212688243294B2C331A603B
:10305000704739B1264A303212680243244B30336C
:103060001A6006E0224A303212688243204B303325
:103070001A607047012808D11D493C31096841F0A8
:1030800008011B4A3C32116007E019493C310968CC
:1030900021F00801164A3C321160704739B1144AD8
:1030A000273A12780243124B273B1A7006E0104A67
:1030B000273A127882430E4B273B1A7070470C4810
:1030C0004030006840F08070094940310860704726
:1030D00001460020064A283A12680A400AB1012037
:1030E00000E0002070470249263908707047000050
:1030F0003438024008B50022009200200021CA2284
:10310000F94B1A6053221A60F74A183A126822F0F3
:10311000A002F54B183B1A6000BFF34A183A126838
:1031200002F02001009A521C0092009AB2F5003F72
:1031300001D00029F1D0EC4A183A126802F02002BE
:103140000AB1012000E00020FF22E74B1A6008BD11
:1031500008B50022009200200021E34A183A1268C4
:1031600002F04002E2B9421EDF4B183B1A6000BF7A
:10317000DD4A183A126802F04001009A521C00928F
:10318000009AB2F5803F01D00029F1D0D64A183A12
:10319000126802F040020AB1012002E0002000E0C3
:1031A000012008BD38B50020009000240025CA2069
:1031B000CD49086053200860FFF7CAFF00B952E00C
:1031C0000020C9492439086042F20110091D086035
:1031D000081D006800F00700091D086000BFC24814
:1031E0001838006800F004040098401C0090009813
:1031F000B0F5803F01D0002CF1D0BB4818380068F2
:1032000000F0040008B900252DE0B7481C3800681C
:103210000020B5491C3908604FF6FF70B2491039DB
:103220000860B248091F08600020AF490C390860E7
:10323000091D0860091D0860AB4908310860AA49EA
:1032400018310860A84920310860091D0860A649A6
:1032500018390860A4491C310860FFF74BFF08B912
:10326000002500E00125FF209F490860284638BD61
:103270009D481838006820F080009B491839086084
:10328000704730B504460025CA209749086053208E
:103290000860FFF75DFF00B91DE093481C38006827
:1032A00020F0400090491C390860084600682168F9
:1032B00008438D491C3908608B491439A06808609F
:1032C00008460068A18840EA01408749143908602F
:1032D000FFF7CEFF0125FF2083490860284630BD57
:1032E000002101607F214160FF218160704718B19A
:1032F000FF217D4A116004E0CA217B4A11605321FD
:103300001160704730B504460025CA207649086030
:1033100053200860FFF71CFF00B914E044B1724865
:103320001C38006840F010006F491C39086007E045
:103330006D481C38006820F010006B491C3908608B
:10334000FFF796FF0125FF2067490860284630BD3A
:10335000CA21654A11605321116040B162491C398C
:10336000096841F02001604A1C3A116007E05E499B
:103370001C39096801F0DF015B4A1C3A1160FF212A
:10338000594A116070470146002204E0501CC2B245
:10339000A1F10A00C1B20A29F8DA100741EA106067
:1033A0007047014600BF080900EB8000420001F0B1
:1033B0000F001044C0B270472DE9F04105460C469D
:1033C0000026002755B948481C38006800F0400026
:1033D00000B102E00020E07000BF0EE042481C385F
:1033E000006800F0400020B12078FFF7DAFF0646C1
:1033F00002E00020E07000BF00BF55B1207800045B
:10340000617840EA0120A1780843E17840EA01466A
:1034100011E02078FFF7B7FF4FEA00486078FFF728
:10342000B2FF48EA0028A078FFF7ADFF48EA00089D
:10343000E07848EA0046CA202B490860532008601B
:10344000FFF786FE08B9002714E0294830402649D6
:1034500024390860FFF70CFF23481C38006800F08F
:10346000200030B9FFF746FE08B9002702E0012727
:1034700000E00127FF201C4908603846BDE8F081C4
:103480000021C170017041708170704770B50646AF
:103490000C460025144824380068154900EA010547
:1034A000C5F305402070C5F30620607005F07F006D
:1034B000A07005F48000000CE0705EB92078FFF782
:1034C00070FF20706078FFF76CFF6070A078FFF7E6
:1034D00068FFA07070BD00200349091D08680249FB
:1034E000203909687047000024280040FF007F0051
:1034F0007F7F7F002DE9F04105460C46002600271E
:103500004DB9607800F01000102804D1607820F0E8
:1035100010000A30607005B908E06078FFF741FFDD
:103520000646A078FFF73DFF064600BF55B1E0789C
:103530000004617840EA0120A1780843217840EA3C
:10354000413611E0E078FFF71EFF4FEA004860784F
:10355000FFF719FF48EA0028A078FFF714FF48EAB0
:103560000008207848EA4036CA20FE490860532007
:103570000860FFF7EDFD08B9002714E0FA48304075
:10358000F84920390860FFF773FEF6481C380068D8
:1035900000F0200030B9FFF7ADFD08B9002702E0C8
:1035A000012700E00127FF20EE4908603846BDE80A
:1035B000F08101210170817041700021C17070475C
:1035C00070B506460C460025E64820380068E649F6
:1035D00000EA0105280CE070C5F30420607005F0D6
:1035E0003F00A070C5F3423020705EB9E078FFF76D
:1035F000D8FEE0706078FFF7D4FE6070A078FFF727
:10360000D0FEA07070BD2DE9F04105460E4614466F
:1036100000276DB9D3481C38006800F0400000B1A5
:1036200002E00020E07000BFA06800B91AE019E0D5
:10363000CC481C38006800F0400020B12078FFF72B
:10364000B0FE074602E00020E07000BFA06820B98D
:10365000207BFFF7A6FE074604E0207BFFF7A1FED4
:10366000074600BF95B120780004617840EA012048
:10367000A1780843E17840EA0140217B40EA0160FB
:10368000A1680843616840EA01071BE02078FFF762
:103690007AFE4FEA00486078FFF775FE48EA002896
:1036A000A078FFF770FE48EA0008E07848EA004892
:1036B000207BFFF768FE48EA0060A1680843616864
:1036C00040EA0107CA20A749086053200860B6F500
:1036D000807F03D1A3480838076002E0A148001F9B
:1036E0000760FF209F490860BDE8F0810021C1709C
:1036F000017041708170816001210173002141607E
:1037000070472DE9F04106460F4614460025B7F5EF
:10371000807F03D193480838056802E09148001F74
:103720000568C5F305402070C5F30620607005F0FC
:103730007F00A07005F48000000CE070C5F3056008
:10374000207305F08040A06005F0803060607EB995
:103750002078FFF726FE20706078FFF722FE607069
:10376000A078FFF71EFEA070207BFFF71AFE2073E3
:10377000BDE8F08138B50246002400940023002003
:10378000CA24784D2C6053242C6041B1754C1C3CEC
:1037900024681443734D1C3D2C6001201EE0714CC5
:1037A0001C3C246894436F4D1C3D2C6000BF6D4C45
:1037B000183C246804EA1223009C641C0094009CBA
:1037C000B4F5803F01D0002BF1D0664C183C246842
:1037D00004EA12240CB9002000E00120FF24614D0E
:1037E0002C6038BD30B50023CA245E4D2C605324B4
:1037F0002C6041EA0203B0F5807F03D1594C20349C
:10380000236002E0574C24342360FF24554D2C6084
:1038100030BD01460020B1F5807F05D1514A2032EC
:103820001268C2F30E0004E04E4A24321268C2F35A
:103830000E007047CA214B4A11605321116049495B
:103840001C39096821F00701464A1C3A11601146EB
:10385000096801431160FF21424A11607047CA2183
:10386000404A1160532111603E4910390860FF2120
:10387000116070473B481038006880B2704718B537
:1038800001460023009300220020CA23354C236008
:103890005323236049B1334B1C3B1B6843F48063C3
:1038A000304C1C3C236001201FE02E4B1C3B1B684E
:1038B00023F480632B4C1C3C236000BF294B183B36
:1038C0001B6803F00402009B5B1C0093009BB3F594
:1038D000803F01D0002AF1D0224B183B1B6803F037
:1038E00004030BB9002000E00120FF231D4C2360DE
:1038F00018BDCA221B4B1A6053221A60194A1C3A7F
:10390000126822F48022174B1C3B1A601A46126878
:1039100040EA01031A43134B1C3B1A60FF22114B70
:103920001A6070470F481C38006800F48020704708
:10393000CA220C4B1A6053221A600A4A1C3A1268B7
:1039400022F4E002074B1C3B1A601A46126840EA58
:1039500001031A43034B1C3B1A60FF22014B1A6000
:1039600070470000242800403FFFFF0070B5044668
:103970000D460026CA20F649086053200860FFF76C
:10398000E7FB00B907E044EA0500F1490C3908609B
:10399000FFF76EFC0126FF20ED490860304670BD40
:1039A00030B504460025CA20E94908605320086064
:1039B000FFF7CEFB00B914E044B1E5481C380068BD
:1039C00040F08000E2491C39086007E0E0481C38FC
:1039D000006820F08000DE491C390860FFF748FCD1
:1039E0000125FF20DA490860284630BDCA21D84A9F
:1039F00011605321116040B1D5491C39096841F467
:103A00000001D34A1C3A116007E0D1491C3909680A
:103A100021F40001CE4A1C3A1160FF21CC4A11600A
:103A20007047CA21CA4A116053211160C8491C3924
:103A3000096821F40021C64A1C3A11601146096840
:103A400001431160FF21C24A1160704770B50346FF
:103A500000200024CA25BE4E356053253560BC4D7C
:103A6000183D2D6805F4803555B100E0641CB84D53
:103A7000183D2D6805F4803515B1B4F5003FF5D13A
:103A8000B34D183D2D6805F480353DB943EA010575
:103A90001543AF4E18363560012000E00020FF25A9
:103AA000AB4E356070BD10B50A460021A84B1C3BDB
:103AB0001B6840F6080423EA04011AB140F40063CD
:103AC000194300E00143CA23A14C23605323236020
:103AD0009F4B1C3B1960FF23236010BD2DE9F04173
:103AE00080460C4615460026002799480C30006891
:103AF000984900EA0106964810300068964900EAA5
:103B00000107C6F305402070C6F30620607006F07A
:103B10007F00A07006F48000000CE0700020E870C8
:103B2000C7F30420687007F03F00A870C7F3423065
:103B30002870B8F1000F17D12078FFF732FC207001
:103B40006078FFF72EFC6070A078FFF72AFCA07069
:103B50006878FFF726FC6870A878FFF722FCA87049
:103B60002878FFF71EFC2870BDE8F08178481430F3
:103B70000068704741B9764A1C32126822EA400256
:103B8000734B1C331A6007E0714A1C32126842EA18
:103B900040026F4B1C331A60704739B16C4A1C32BB
:103BA000126802436A4B1C331A6006E0684A1C32F2
:103BB00012688243664B1C331A60704764491C319B
:103BC000096821F4C051624A1C321160114609682B
:103BD0000143116070475E491C31096821F4E061BE
:103BE0005B4A1C321160114609680143116070473D
:103BF00057491C31096821F4C041554A1C321160F3
:103C00001146096801431160704740B150491C31A9
:103C1000096841F080014E4A1C32116007E04C49AE
:103C20001C31096821F08001494A1C32116070473B
:103C300040B147491C31096821F40041444A1C3213
:103C4000116007E042491C31096841F40041404AD3
:103C50001C321160704708B5002200923C4A2C3299
:103C60000092009A02EB80020092009A116008BD57
:103C700008B501460020009035482C30009000988F
:103C800000EB810000900098006808BD30491C31AD
:103C9000096821F480312E4A1C32116011460968EE
:103CA0000143116070472A491C31096821F4003131
:103CB000274A1C32116011460968014311607047A0
:103CC00023491C31096821F48021214A1C321160EA
:103CD00011460968014311607047F0B504460D466E
:103CE00000270026CA201A49086053200860184897
:103CF0001838006800F0080050B100E0761C144845
:103D00001838006800F0080010B1B6F5805FF5D1F2
:103D10000F481838006800F0080098B90C481C38A3
:103D2000006800F0100058B945EA0400084908315D
:103D30000860FFF7DFF908B9002704E0012702E077
:103D4000002700E00027FF20014908603846F0BD49
:103D5000242800407F7F7F003FFFFF00CA223D4BA9
:103D60001A6053221A6091B13A4A1C3A126820F044
:103D700004031A43374B1C3B1A60364A1C32126844
:103D800000F004031A43334B1C331A6011E0314A2C
:103D90001C3A126820F004039A432E4B1C3B1A6015
:103DA0002C4A1C32126800F004039A43294B1C333E
:103DB0001A60FF22274B1A60704710B50146002099
:103DC0000022244B183B1B68234C03EA040202EA3E
:103DD00001030BB1012000E0002010BD81B241F0D1
:103DE00080011C4A183A126802F0800262EA01015E
:103DF000184A183A1160704730B501460020002279
:103E00000023144C1C34246804F00402114C1C3CA4
:103E100024680C4002EAD13544EA05030D4C183CF5
:103E2000246804EA11121BB194B20CB1012000E025
:103E3000002030BD002101098AB242F08002054B0A
:103E4000183B1B6803F0800363EA0202014B183B36
:103E50001A607047242800407F3F010010B50121FF
:103E6000C802FFF7A1F800214FF40060FFF79CF8AB
:103E700010BD00216C4A116847F6FF629143027D34
:103E800083681A4343681A43C3681A4303681A4392
:103E900003691A431143644A116070470021017598
:103EA000016041608160C160016170475F490860E5
:103EB00070475D49091F086070475B48001F006834
:103EC00000F0030070470021574B1B1D02681A6069
:103ED0001A1D11686FF30A01D0E901231A43C36860
:103EE0001A4303691A4311434F4A0832116070475D
:103EF0000021016041608160C160016170474A48F2
:103F00000C300068C0B2704708B501460020009030
:103F100045481030084400900098006808BD002112
:103F2000414B203302681A601B1D42681A601A1D3B
:103F3000116821F0F701D0E902231A4303691A43FB
:103F400043691A431143384A2832116070474FF0D1
:103F5000FF310160002141608160C1600161416108
:103F6000704731482C30006870472F487C3000681B
:103F700070472D497C31086070472B4844300068F9
:103F800070472B49086070472949091D0860704730
:103F9000274908310860704725490C31086070478F
:103FA0002449086070472349091D086070470121B2
:103FB0008143204A0832116070471E490C31086065
:103FC00070471B4914390860704739B1164A3832B6
:103FD00012680243144B38331A6006E0124A383232
:103FE00012688243104B38331A6070470146002034
:103FF0000D4A303212680A400AB1012000E0002068
:104000007047094934310860704701460020064A6C
:10401000303212680A400AB1012000E000207047E7
:104020000149343108607047042C0140A0802542CA
:10403000A0852542AC81254210B50446FB48844248
:1040400008D101218014FEF7AFFF0021A014FEF774
:10405000ABFF3CE0F648844208D101210014FEF792
:1040600092FF00212014FEF78EFF30E0F1488442D9
:1040700008D10121C013FEF786FF0021E013FEF7EF
:1040800082FF24E0EC48844208D101214014FEF76D
:104090008BFF00216014FEF787FF18E0E748844299
:1040A00009D101210805FEF77FFF00214FF48010A0
:1040B000FEF77AFF0BE0E248844208D1012148056F
:1040C000FEF772FF00214FF40010FEF76DFF10BDE8
:1040D00010B50022028802F441520B884C88234319
:1040E0008C882343CC8823430C8923434C89234366
:1040F0008C892343CC8923431A430280838B4FF25C
:10410000FF74234083830B8A038210BD2DE9F04F97
:104110000025022300244FF0010900220026002779
:1041200094469046B0F81CA04FF2400B0AEA0B0AE6
:10413000A0F81CA04FF0020AA0F820A0858BD1F8AF
:1041400008A0BAF1020F01D100BF82E0B1F804A0CB
:10415000BAF1000F02D14FF0010901E04FF002095E
:10416000DFF8E0A2DAF800A00AF4000ABAF1000FC2
:1041700009D0DFF8D0A2DAF800A02AF4000ADFF8AC
:10418000C4B2CBF800A0DFF8BCA20AF17C0ADAF8CE
:1041900000A0CAF3881CDFF8ACA20AF17C0ADAF8A6
:1041A00000A0CAF30278DFF89CA2AAF1040ADAF8A8
:1041B00000A00AF03F07DFF88CA2AAF1040ADAF89F
:1041C00000A00AF4800ABAF5800F08D1DFF878A2BF
:1041D000BAFBF7FA0AFB0CFABAFBF8F607E0DFF8CD
:1041E0006CA2BAFBF7FA0AFB0CFABAFBF8F6B1F8C4
:1041F00006A0BAF5007F0ED14FEA162A0AEB8A0A0A
:104200004FEA4A0AD1F808B0BAFBFBFA0AF1050AEC
:104210001FFA8AF20FE04FEA491AB6FBFAFA0AEBE4
:104220008A0A4FEA4A0AD1F808B0BAFBFBFA0AF147
:10423000050A1FFA8AF24FF00A0AB2FBFAF202F0FC
:104240000104A2EB040ACAF34F034FF6FF7A0AEA0D
:104250000424022B01DBFF2B01DD02230024B1F833
:1042600006A04AEA040A4AEA030AA0F820A0B1F824
:1042700004A0B1F80CB04AEA0B0AB1F802B04AEA5D
:104280000B0AB1F800B04AEA0B0A4AF4006A4AEA9B
:1042900005058583BDE8F08F002101804180818084
:1042A000C180018141818181C181072101827047E3
:1042B0000021018041808180C18002218160002134
:1042C0008181704721B1028842F04002028004E0FF
:1042D00002884FF6BF731A400280704721B1828B6B
:1042E00042F48062828304E0828B4FF6FF331A40EF
:1042F0008283704702884FF2FF731A40028002885F
:104300000A4302807047B1F5804F04D1028842F41D
:104310008042028004E002884BF6FF731A4002805C
:1043200070474FF6FF62914204D0028842F48072D7
:10433000028004E002884FF6FF631A400280704753
:1043400021B1828842F00402828004E082884FF624
:10435000FB731A408280704721B1828842F01002BC
:10436000828004E082884FF6EF731A4082807047A3
:1043700030B500220023848B4FF240052C4084830B
:1043800002240484828B0C88B4F5007F01D00C8851
:1043900014B94FF4807308E00C88B4F5407F03D063
:1043A0000C88B4F5807F00D100238C888D892C4344
:1043B0004D882C431C4344F400642243828330BD67
:1043C0000146888970478181704721B1028842F493
:1043D0000052028004E002884DF6FF731A4002800A
:1043E0007047018841F480510180704702460020E7
:1043F000012901D0108B00E0908A70470146088A9D
:1044000070471AB183880B43838002E083888B4313
:104410008380704730B5002400230C110125A5408E
:10442000ABB2AAB185881D43858014E000300140FD
:1044300000380040003C0040003401400050014082
:10444000005401400838024040787D010024F40007
:1044500085889D43858030BD0246002013890B402E
:104460000BB1012000E000207047CA430281704771
:10447000F0B50246002000240023002501F00F07BC
:104480000126BE40B4B20B1101269E40B3B29688FD
:1044900006EA03051689264016B10DB1012000E099
:1044A0000020F0BD10B5002201F00F040123A3404D
:1044B0009AB2D343038110BD10B50446FE4884422E
:1044C00008D101210846FEF76FFD00210120FEF70B
:1044D0006BFD9DE0B4F1804F08D101210846FEF745
:1044E00052FD00210120FEF74EFD91E0F348844289
:1044F00008D101210220FEF746FD00210220FEF72F
:1045000042FD85E0EE48844208D101210420FEF7F7
:104510003AFD00210420FEF736FD79E0E9488442A7
:1045200008D101210820FEF72EFD00210820FEF70A
:104530002AFD6DE0E448844208D101211020FEF7F5
:1045400022FD00211020FEF71EFD61E0DF488442BD
:1045500008D101212020FEF716FD00212020FEF7C2
:1045600012FD55E0DA48844208D101210220FEF70D
:104570001BFD00210220FEF717FD49E0D5488442CB
:1045800009D101210804FEF70FFD00214FF480300E
:10459000FEF70AFD3CE0D048844209D101214804DD
:1045A000FEF702FD00214FF40030FEF7FDFC2FE086
:1045B000CA48844209D101218804FEF7F5FC002194
:1045C0004FF48020FEF7F0FC22E0C548844208D179
:1045D00001214020FEF7D7FC00214020FEF7D3FC4C
:1045E00016E0C048844208D101218020FEF7CBFCB0
:1045F00000218020FEF7C7FC0AE0BB48844207D1B7
:1046000001218015FEF7BFFC0021A015FEF7BBFCC1
:1046100010BD00220288A84B98420ED0AC4B9842A5
:104620000BD0B0F1804F08D0A44B984205D0A44BDA
:10463000984202D0A34B984204D14FF68F731A4090
:104640004B881A43A04B984207D0A04B984204D005
:104650004FF6FF431A400B891A4302804B68C3622E
:104660000B880385944B984202D0994B984201D114
:104670008B7A03860123838270474FF0FF314160BC
:104680000021018001814180817270470185828211
:1046900070470A46002101884FF68F731940114375
:1046A0000180704741627047C16270470146486AA5
:1046B00070470146088D704721B1028842F002021E
:1046C000028004E002884FF6FD731A4002807047B2
:1046D00021B1028842F00402028004E002884FF611
:1046E000FB731A400280704721B1028842F08002B9
:1046F000028004E002884FF67F731A400280704700
:1047000002884FF6F7731A40028002880A4302803B
:10471000704702884FF6FF431A40028002880A431E
:104720000280704721B1028842F00102028004E059
:1047300002884FF6FE731A400280704770B500245D
:1047400000220023058C4FF6FE7635400584028C4E
:104750008388048B4FF68F752C40B51E2C400D8836
:104760002C43751E2A408D892A434D882A43524D79
:10477000A84202D0564DA84213D14FF6F7752A40F1
:10478000CD892A434FF6FB752A408D882A434FF680
:10479000FF652B404FF6FF552B400D8A2B434D8A6A
:1047A0002B43838004838D684563028470BD70B59C
:1047B000002400220023058C4FF6EF763540058457
:1047C000028C8388048B48F6FF752C404FF6FF451A
:1047D0002C400D884FF6FF7606EA05252C434FF650
:1047E000DF752A408D8906EA05152A434D8806EAB9
:1047F00005152A43304DA84202D0354DA8421DD19F
:104800004FF67F752A40CD894FF6FF7606EA0515EB
:104810002A434FF6BF752A408D8806EA05152A43BC
:104820004FF6FF352B404FF2FF752B400D8A06EAFD
:1048300085052B434D8A06EA85052B438380048337
:104840008D688563028470BD70B50024002200234A
:10485000058C4FF6FF6635400584028C8388848B77
:104860004FF68F752C404FF6FC752C400D882C436D
:104870004FF6FF552A408D894FF6FF7606EA05254B
:104880002A434D8806EA05252A430B4DA84202D04B
:104890000F4DA84238D14FF2FF752A40CD894FF60F
:1048A000FF7606EA05252A434FF6FF352A408D8814
:1048B00006EA05252A4319E00000014000040040F3
:1048C00000080040000C00400010004000140040B0
:1048D0000004014000400140004401400048014004
:1048E00000180040001C0040002000404EF6FF75FC
:1048F0002B404DF6FF752B400D8A06EA05152B431C
:104900004D8A06EA05152B43838084838D68C56331
:10491000028470BD70B5002200230024058C4EF681
:10492000FF7635400584038C8488828B48F6FF75BA
:104930002A404FF6FF452A400D884FF6FF7606EADB
:1049400005252A434DF6FF752B408D8906EA05356E
:104950002B434D8806EA05352B43FE4DA84202D075
:10496000FD4DA84208D14BF6FF752C400D8A4FF63D
:10497000FF7606EA85152C43848082838D68056462
:10498000038470BD0021018041808180816081812C
:10499000C18101824182704770B503460020002426
:1049A0001846183001258D40ACB21D8CA5431D84DE
:1049B00009B108290AD100EB610005684FF68F762E
:1049C000354005600568154305600FE00D1FC5F310
:1049D0004E052844056848F6FF76354005600568B1
:1049E0004FF6FF7606EA02263543056070BD416347
:1049F000704781637047C1637047016470470A461E
:104A00000021018B4FF68F731940114301837047CA
:104A10000A460021018B48F6FF7319404FF6FF73D9
:104A200003EA02231943018370470A460021818B60
:104A30004FF68F7319401143818370470A46002156
:104A4000818B48F6FF7319404FF6FF7303EA022388
:104A50001943818370470A460021018B4FF6F77393
:104A600019401143018370470A460021018B4FF220
:104A7000FF7319404FF6FF7303EA022319430183C2
:104A800070470A460021818B4FF6F7731940114396
:104A9000818370470A460021818B4FF2FF731940D2
:104AA0004FF6FF7303EA02231943818370470A46D6
:104AB0000021018B4FF6FB731940114301837047AE
:104AC0000A460021018B4FF6FF3319404FF6FF7362
:104AD00003EA02231943018370470A460021818BB0
:104AE0004FF6FB7319401143818370470A4600213A
:104AF000818B4FF6FF3319404FF6FF7303EA022311
:104B00001943818370470A460021018B4FF67F735A
:104B100019401143018370470A460021018BC1F3FC
:104B20000E014FF6FF7303EA022319430183704716
:104B30000A460021818B4FF67F7319401143818310
:104B400070470A460021818BC1F30E014FF6FF73B7
:104B500003EA02231943818370470A460021018C2E
:104B60004FF6FD7319401143018470470A46002136
:104B7000018C4FF6F77319401143018470470A46C0
:104B80000021018C4FF6DF7319404FF6FF7303EAE3
:104B900002131943018470470A460021018C4FF625
:104BA0007F7319404FF6FF7303EA02131943018420
:104BB00070470A460021018C4FF6FF5319404FF60B
:104BC000FF7303EA02231943018470470A46002158
:104BD000018C4FF2FF7319404FF6FF7303EA022373
:104BE0001943018470470A460021018C4DF6FF737A
:104BF00019404FF6FF7303EA0233194301847047EB
:104C000030B5002301248C40A3B2048C9C4304845F
:104C1000048C02FA01F5ADB22C43048430BD30B5EA
:104C2000002304248C40A3B2048C9C430484048C91
:104C300002FA01F5ADB22C43048430BD828B4FF2F1
:104C4000FF331A408283828B4FF6FF7303EA0123FE
:104C50001A4382837047F0B50C46154600210022A6
:104C60000026078C4EF6FF7C07EA0C070784818B31
:104C7000028C4FF6FF7707EA043640F6FF473940CB
:104C80004FF6FF7707EA052739434FF6FF7707EA24
:104C90000337394345F6FF773A4046F480573A43A5
:104CA00081830284F0BD828B4FF6F3731A408283B6
:104CB000828B0A4382837047F0B50C46154600216B
:104CC00000220026078C4FF6FF6C07EA0C070784CA
:104CD000818B028C4FF6FF7707EA04264FF60C779C
:104CE00039404FF6FF7707EA03172F4339434FF256
:104CF000FF573A4046F480773A4381830284F0BDFF
:104D0000028B4FF2FF331A400283028B4FF6FF7380
:104D100003EA01231A4302837047F0B50C46154697
:104D2000002100220026078C4FF6EF7C07EA0C07D3
:104D30000784018B028C4FF6FF7707EA041640F6D2
:104D4000FF4739404FF6FF7707EA033739434FF6FD
:104D5000FF7703E0000001400004014007EA052757
:104D600039434FF65F773A4046F010073A430183E4
:104D70000284F0BD028B4FF6F3731A400283028B5C
:104D80000A4302837047F0B50C4615460021002205
:104D9000068C4FF6FE773E400684018B028C4FF660
:104DA0000C7631407E1C06EA03162E4331434FF643
:104DB000F576324044F00106324301830284F0BDAF
:104DC00070B505460C46208850B92389A2886188B1
:104DD0002846FFF7D8FFE1882846FFF7CBFF25E0FC
:104DE000208804280AD12389A28861882846FFF7F1
:104DF00094FFE1882846FFF783FF17E02088082802
:104E00000AD12389A28861882846FFF755FFE188E7
:104E10002846FFF748FF09E02389A28861882846D1
:104E2000FFF719FFE1882846FFF708FF70BD002152
:104E300001804180012181800021C1800181704772
:104E40002DE9F04105460C4600260127608808B987
:104E5000022600E00026A088012801D1022700E0F8
:104E600001272088A0B92389A28861882846FFF7F6
:104E70008AFFE1882846FFF77DFF23893A463146BD
:104E80002846FFF74AFFE1882846FFF739FF13E07D
:104E90002389A28861882846FFF73FFFE1882846DA
:104EA000FFF72EFF23893A4631462846FFF76BFF6E
:104EB000E1882846FFF75EFFBDE8F0810146486BB8
:104EC00070470146886B70470146C86B70470146C2
:104ED000086C70470A884B881A438B881A43CB8822
:104EE0001A430B891A434B891A438B891A43A0F83A
:104EF000442070470021018041808180C180018170
:104F000041818181704731B1B0F8442042F40042C0
:104F1000A0F8442005E0B0F84420C2F30E02A0F847
:104F20004420704721B1828842F00402828004E06C
:104F300082884FF6FB731A408280704721B18288C5
:104F400042F00102828004E082884FF6FE731A402C
:104F5000828070471AB183890B43838102E0838981
:104F60008B43838170478182704702460020138AF9
:104F70000B400BB1012000E000207047CA430282C1
:104F8000704730B50246002000230024158A05EA48
:104F90000103958905EA010413B10CB1012000E079
:104FA000002030BDCA430282704741EA0203A0F8E4
:104FB000483070471AB183890B43838102E08389AB
:104FC0008B438381704721B1828842F0080282803E
:104FD00004E082884FF6F7731A4082807047018997
:104FE0004FF6F8721140018170470A46002101898D
:104FF0004FF68F73194011430181704730B5044655
:105000000D4629462046FFF7F0FF208940F00700B3
:10501000208130BD2DE9F04104460D4616461F465D
:10502000602D06D13B46012231462046FFF775FE32
:1050300005E03B46012231462046FFF7A4FE294603
:105040002046FFF7D2FF208940F007002081BDE80D
:10505000F08130B50C4600210189C9B24FF6FF75C9
:1050600005EA0325154325432943018130BD2DE978
:10507000F04105460E4617469846002443463A46F8
:1050800031462846FFF7E5FF2C894FF6F8700440BB
:1050900044F007044FF68F70044044F070042C81F4
:1050A000BDE8F081F0B504460D4616461F463B4666
:1050B000324629462046FFF7CCFF208940F4804045
:1050C0002081F0BD82884FF68F731A4082808288DB
:1050D0000A438280704702894FF6F8731A400281B2
:1050E00002890A430281704702894FF67F731A4092
:1050F000028102890A4302817047F0B50C461546C9
:105100001E460021002200230189028B038C4FF6EA
:10511000F877394021434FF6FC473A4040F20117F7
:105120003A434FF6DD773B404FF6FF7707EA061725
:105130002F433B43018102830384F0BD21B1828868
:1051400042F08002828004E082884FF67F731A402A
:1051500082807047A0F850107047000010B50446D8
:10516000FA48844208D101211020FDF71DFF0021DB
:105170001020FDF719FF57E0F548844209D10121BD
:105180004804FDF700FF00214FF40030FDF7FBFE5F
:105190004AE0F048844209D101218804FDF7F3FE7A
:1051A00000214FF48020FDF7EEFE3DE0EA48844206
:1051B00009D10121C804FDF7E6FE00214FF40020CB
:1051C000FDF7E1FE30E0E548844209D10121080500
:1051D000FDF7D9FE00214FF48010FDF7D4FE23E047
:1051E000DF48844208D101212020FDF7DDFE0021A7
:1051F0002020FDF7D9FE17E0DA48844209D10121C9
:105200008807FDF7C0FE00214FF08040FDF7BBFE90
:105210000AE0D548844207D101214005FDF7B3FEDD
:1052200000216005FDF7AFFE10BD2DE9FF470546E3
:105230000E460024A14600BFA046B08900B100BFC1
:105240002C8A24F44054F08804432C82AC8941F227
:105250000C608443B0883189084371890843044352
:10526000AC81AC8A24F44074B0890443AC826846B3
:10527000FDF71CFDB548854202D0B948854202D1F0
:10528000DDF80C9001E0DDF80890A88900F40040FA
:1052900040B109EBC90000EB091031684900B0FBCF
:1052A000F1F707E009EBC90000EB0910316889004C
:1052B000B0FBF1F76420B7FBF0F004012009642192
:1052C00001FB1078A88900F4004040B1322000EBC7
:1052D000C800B0FBF1F000F00700044308E0322002
:1052E00000EB08106421B0FBF1F000F00F00044364
:1052F0002C81BDE8FF874FF41651016000218180A9
:10530000C18001810C21418100218181704710B54C
:1053100002460020108A20F470600B884C882343DA
:105320008C882343CC8823431843108210BD00216E
:10533000018041808180C180704721B1828942F41F
:105340000052828104E082894DF6FF731A40828107
:105350007047028B02F47F420283028B0A4302836E
:10536000704721B1828942F40042828103E0828940
:10537000C2F30E028281704721B1828A42F4006238
:10538000828204E0828A4FF2FF731A408282704761
:10539000C1F308028280704701468888C0F3080084
:1053A0007047028A4FF6F0731A400282028A0A435B
:1053B0000282704721B1828942F00202828104E0B8
:1053C00082894FF6FD731A408281704782894FF2BD
:1053D000FF731A40828182890A4382817047028A60
:1053E0004FF6DF731A400282028A0A430282704734
:1053F00021B1028A42F48042028204E0028A4BF622
:10540000FF731A4002827047818941F00101818156
:10541000704721B1828A42F00802828204E0828AC7
:105420004FF6F7731A4082827047028BD2B2028322
:10543000028B42EA01220283704721B1828A42F044
:105440002002828204E0828A4FF6DF731A40828251
:10545000704721B1828A42F01002828204E0828A7F
:105460004FF6EF731A4082827047828A4FF6FB73C1
:105470001A408282828A0A438282704721B1828ADC
:1054800042F00202828204E0828A4FF6FD731A40E3
:10549000828270471AB1838A0B43838202E0838A37
:1054A0008B4383827047F0B5034600240026002515
:1054B000002040F66A17B94200D100BF1846C1F378
:1054C000421401F01F06012707FA06F5012C01D14D
:1054D0000C3004E0022C01D1103000E014301AB17D
:1054E00007682F43076002E00768AF430760F0BD1D
:1054F00002460020B1F5007F00D100BF13880B40A9
:105500000BB1012000E00020704701F40072B2F5F9
:10551000007F00D100BFCA430280704770B50246C9
:10552000002400230025002040F66A16B14200D175
:1055300000BFC1F3421501F01F03012606FA03F371
:10554000012D13D19689334017E00000001001406F
:105550000044004000480040004C00400050004023
:105560000014014000780040007C0040022D02D170
:10557000168A334001E0968A33400C12012606FA5F
:1055800004F41688344013B10CB1012000E000206F
:1055900070BD10B50022002340F66A14A14200D16C
:1055A00000BF0A1201249440A3B2DC43048010BD62
:1055B00070B50546002404E0295DFD48FFF7E8FECC
:1055C000641C0B2CF8D370BD08B5684606F0AFF824
:1055D00002F04DFA684606F0D8F808BD0EB50EE0A8
:1055E000F4481DF057FC1BF02BFE02A800214FF4DD
:1055F000FA730A46CDE9001008460AF0D3F9EFE73E
:105600002DED068B84B000BF63E003A806F08FF891
:10561000E94802F004FB10B9E8A03FF0B9F903A88B
:1056200006F0B3F8E4488078E8490860E24800787A
:10563000E749086020F0C0FD072190FBF1F201FB73
:105640001200E44908600846006820F0B4FF41EC0D
:105650001A0B9FEDE10B53EC102B20F0B5FE41EC43
:10566000190B9FEDDF0B53EC102B20F006FE41ECE5
:10567000180B21F041F8DC490860DC48006830B1C3
:10568000D3480068502802D90020D9490860D94879
:105690000068A8B14FF40061D748FCF783FB03A86A
:1056A00000210B460122CDE9001008460AF07AF9E4
:1056B0004FF40061D048FCF777FB0020CD4908602B
:1056C00003A800210B460522CDE9001008460AF088
:1056D00069F99AE700B587B0C8480188C8A03FF0CB
:1056E00057F9C648008820F4006008B907B000BD2B
:1056F000C248007800F00200E8B9C048007800F025
:105700004000C0B9BD480288C3A101A83FF050F9CC
:1057100025F05EF9FF2027F060FBC34827F07AFBF5
:1057200078224FF4C87101A825F054FC8021BF48AD
:10573000FCF738FB00BF20E0B0480188B0A03FF084
:1057400027F94FF48060BA49088006A800214FF479
:10575000FA730A46CDE9001008460AF023F94FF41F
:105760008060B349891E088006A8002164230A4688
:10577000CDE9001008460AF015F9DDE79F480088DA
:1057800008B1FFF7A7FF04E0AAA03FF001F911F06C
:1057900012FEF9E70EB53BE002A805F0C8FFA748E6
:1057A0000078A74988710B21A54800F06FFD90484B
:1057B000006820B10821A34800F068FD03E008213B
:1057C000A14800F063FD0B21A04800F05FFD02A896
:1057D00005F0DBFF9E480068012810D1974800685B
:1057E00068B99C480068401E9A49086008460068ED
:1057F00028B900209649086001209049086002A855
:1058000000210B460122CDE9001008460AF0CAF833
:10581000C2E700B58BB00AAA0121084605F0F5FFE2
:105820000AA8032100220592CDE90621089011461D
:105830004FF400728848D0F8CC00874BCDE9013096
:10584000CDE9032110200023844A85A100908A48D5
:1058500008F0B8FE0AA8032100220592CDE906212E
:10586000089011464FF400628448D0F83003834B0F
:10587000CDE90130CDE903210F200023804A78A132
:105880000090804808F09EFE0AA80321002205929D
:10589000CDE906210890104680210C227A4BCDE9F3
:1058A0000132CDE903100F200023AFF2AB2277A124
:1058B00000907C4808F086FE0AA803210022059289
:1058C000CDE90621089010464FF480616622764BA0
:1058D000CDE90132CDE903100F200023AFF20332EE
:1058E00072A10090754808F06DFE0BB000BD7047C6
:1058F0000EB500F04DFA03F015FF1BF0E0FC1BF0B5
:1059000039FD1BF0C8FC1DF03EF802F01FF96CA039
:105910003FF03EF802A808F0A6FA03F0A1FFFFF757
:10592000E6FFFFF776FF0AE0FFF74EFE02A8002130
:1059300014230A46CDE9001008460AF033F8F3E7CD
:105940008CB004F04AFA04F0E1F90AA961A003F06E
:105950001AFF00F02FFB0BA805F0BBFD0AF0DEFDDF
:105960000BA8032100220592CDE9062108901146DB
:105970004FF400725A48D0F8CC00594BCDE90130B1
:10598000CDE9032102200023564A57A100905A482E
:1059900008F018FEBDF82C0028B11848008840F027
:1059A0000100164908800BA806F007F800BFFEE7C3
:1059B000004800406C3F012024000020444854313E
:1059C000315F4552524F520A000000002C00002067
:1059D00030000020580000209A9999999999B93F70
:1059E000000000000000F03F5400002050000020A4
:1059F000380000203C00002000200240C8000020A9
:105A00006273705F726573756C742D3E28307825F3
:105A1000303458290A0000006572726F722D3E28DA
:105A200030782530345829003C490A08000C0240DF
:105A30001A1C0240545441534B340A0034000020D5
:105A40005E0000207C000020840000208C000020EC
:105A5000480000204C0000206019002095570008E5
:105A60004B65726E656C204F626A65637473205477
:105A700061736B203000000098180020282200205D
:105A80007D57000860210020F04200204745545F08
:105A900048554D54454D4C4C494748545F546173EB
:105AA0006B00000028420020B8450020494F545F99
:105AB00048414E444C455F7461736B00F0440020D4
:105AC0004D435520496E6974205375636365737344
:105AD000200A000053544D333246343239494900CC
